:020000040800F2
:10000000880700209D0100085D060008D50500084E
:10001000590600082B0400085B14000800000000CB
:10002000000000000000000000000000AF01000818
:100030002F04000800000000B3010008B50100080B
:10004000B7010008B7010008B7010008B7010008B0
:10005000B7010008B7010008B7010008B7010008A0
:10006000B7010008B701000855040008B7010008EF
:10007000B7010008B7010008B7010008B701000880
:10008000B7010008B7010008B7010008B701000870
:10009000B7010008B7010008B7010008790400089B
:1000A000B7010008B7010008B7010008B701000850
:1000B000B7010008B7010008B7010008B701000840
:1000C000B7010008B7010008B7010008B701000830
:1000D000B7010008C111000851120008B70100085B
:1000E00031040008B7010008B7010008B701000893
:1000F000B7010008B7010008B7010008B701000800
:10010000B7010008B7010008B7010008B7010008EF
:10011000B7010008B7010008B7010008C1100008C6
:10012000B7010008B7010008B7010008B7010008CF
:10013000B7010008B7010008B7010008B7010008BF
:10014000B7010008B7010008B7010008B7010008AF
:10015000B7010008B7010008B7010008B70100089F
:10016000B7010008B7010008B7010008B70100088F
:10017000B7010008B7010008B7010008B70100087F
:10018000B7010008B7010008DFF80CD000F044F810
:1001900000480047291A00088807002006488047C1
:1001A00006480047FEE7FEE7FEE7FEE7FEE7FEE75C
:1001B000FEE7FEE7FEE7FEE7AD0F00088901000855
:1001C000421C10F8011B0029FBD1801A704710B5A2
:1001D000002200E0521C835C8C5CA34201D1002B06
:1001E000F8D1D8B2E1B2401A10BD30B50B46014685
:1001F00000202022012409E021FA02F59D4205D3C6
:1002000003FA02F5491B04FA02F52844151EA2F16F
:100210000102F1DC30BD0000064C074D06E0E0684D
:1002200040F0010394E8070098471034AC42F6D33D
:10023000FFF7AEFF6C2A00088C2A000870B58C18F6
:1002400010F8015B15F0070301D110F8013B2A11EA
:1002500006D110F8012B03E010F8016B01F8016BD7
:100260005B1EF9D12B0705D40023521E0DD401F8D3
:10027000013BFAE710F8013BCB1A921C03E013F89C
:10028000015B01F8015B521EF9D5A142D8D30020D1
:1002900070BD21B1826842F00102826003E0826891
:1002A00022F00102826070470021084A1168084A62
:1002B0001140D0E900231A4383681A43C3681A43E4
:1002C0001143044AC2F8041370470000042301409C
:1002D000E030FCFF002001400021016041608160AE
:1002E000C16070470146C86C80B27047024600206A
:1002F00013680B400BB1012000E0002070470000A4
:1003000030B50246002000235068104C20400D7983
:100310000C6844EA05242043506090680C4C20404F
:10032000D1E903542C438D682C434D7944EA4504AC
:1003300020439060D06A20F470000C7D641EE4B20B
:10034000234340EA0350D06230BD0000FFFEFFFCB3
:10035000FDF7FFC0F0B504460D4600200021092D31
:1003600011DDE068A5F10A0606EB4607072606FA46
:1003700007F18843A5F10A0606EB460603FA06F1E3
:100380000843E0600CE0206905EB4507072606FA04
:1003900007F1884305EB450603FA06F1084320619F
:1003A000072A0FDA606B561E06EB86071F2606FA31
:1003B00007F18843561E06EB860605FA06F1084348
:1003C000606322E00D2A0FDA206BD61F06EB86074A
:1003D0001F2606FA07F18843D61F06EB860605FAA4
:1003E00006F10843206310E0E06AA2F10D0606EB77
:1003F00086071F2606FA07F18843A2F10D0606EBD1
:10040000860605FA06F10843E062F0BD816841F016
:1004100080418160704700210160017141718160FC
:10042000C160016101210175704700BFFEE770479F
:1004300010B54FF4005000F045F8012807D14003F3
:1004400000F03AF84FF48061014800F0BFF810BDA9
:100450000010024010B5102000F034F8012807D138
:10046000102000F029F84FF48071024800F0AEF837
:1004700010BD00000010024010B5202000F022F84E
:10048000012807D1202000F017F84FF40071084828
:1004900000F09CF8402000F015F8012807D140201A
:1004A00000F00AF84FF48061024800F08FF810BDA8
:1004B000001002400004024001490860704700003B
:1004C000143C014001460020034A12680A400AB168
:1004D000012000E000207047143C0140F0B50A46BE
:1004E00000210023002400BF3DE0012505FA01F3AF
:1004F000156805EA03049C4234D105684F000326C1
:10050000BE40B543056015794E00B54006683543D9
:1005100005601579012D02D01579022D16D1856857
:100520004F000326BE40B543856055794E00B54067
:10053000866835438560456801268E40B543456031
:10054000456896798E40B6B235434560C5684F0020
:100550000326BE40B543C560D5794E00B540C66898
:100560003543C560491C1029BFD3F0BDF0B5002349
:1005700000244D07ED0E02FA05F3CE1000F1200520
:1005800055F826504E07F70E0F26BE40B543CF1044
:1005900000F1200646F82750CE1000F1200555F84E
:1005A000265045EA0304CE1000F1200545F8264008
:1005B000F0BD0246002013690B400BB1012000E0A2
:1005C00000207047418370470183704742694A4069
:1005D0004261704700BFFEE71CB50121102000F00A
:1005E00009FB01208DF8040000208DF806004FF46F
:1005F000E060009001208DF8070002208DF80500D2
:1006000069460448FFF76AFF4FF4E0610148FFF7CD
:10061000DBFF1CBD001002401CB50121022000F0D0
:10062000E9FA01208DF8040000208DF806004FF44F
:100630008060009002208DF807008DF80500694663
:100640000448FFF74BFF4FF480610248FFF7BAFF01
:100650001CBD00000004024000BFFEE77047000020
:1006600070B5002100230F22C4781CB3174C2468F6
:1006700004F4E064C4F5E064C4F30721C1F10404A8
:10068000E3B20A4144789C40E1B2847814402143AB
:100690000C07210E0E4C05786155047804F01F05F7
:1006A0000124AC4005786D11AD0005F1E025C5F8D9
:1006B000004109E0047804F01F050124AC40054D19
:1006C0000678761145F8264070BD00000CED00E07C
:1006D00000E400E080E100E070B50646002415E08B
:1006E00004F1B001C8B200F039FA002000F036FA87
:1006F000102000F033FA002504E0304600F054FAF0
:10070000681CC5B2802DF8DB601CC4B2082CE7DB86
:1007100070BD70B504460D4605F1B001C8B200F0D9
:100720001DFA102141EA141000F018FA04F00F002D
:1007300000F014FA70BD00002DE9F04106460F46A6
:100740009046002445462AE039463046FFF7E1FF4F
:10075000002409E02978203904EB0111124A505C89
:1007600000F022FA601CC4B2082CF3DB781CC1B282
:100770003046FFF7CEFF00240BE02978203908220D
:1007800002EB01112144084A505C00F00DFA601C94
:10079000C4B2082CF1DB6D1C06F10800C6B2287843
:1007A0000028D1D1BDE8F0817C2400082DE9F0417A
:1007B00007460E461546002431463846FFF7A9FF86
:1007C00000BF04E0285D00F0EFF9601CC4B2102CFB
:1007D000F8DB701CC1B23846FFF79BFF002406E02F
:1007E00004F11001685C00F0DFF9601CC4B2102C49
:1007F000F6DBBDE8F08170B504460D46164622468C
:1008000002214020FFF798FF2A4604214020FFF7ED
:1008100093FF324606214020FFF78EFF70BD2DE981
:10082000F04104460D4617461E4622460021402050
:10083000FFF782FF2A4602214020FFF77DFF3A465C
:1008400004214020FFF778FF324606214020FFF7C1
:1008500073FFBDE8F081000010B5234A002110208D
:10086000FFF7A4FF214A00212020FFF79FFF204A25
:1008700002211020FFF79AFF1C4A02212020FFF7D7
:1008800095FF1C4A04211020FFF790FF1A4A04210B
:100890002020FFF78BFF194A06210020FFF786FF73
:1008A000174A06211020FFF781FF164A0621202053
:1008B000FFF77CFF144A06213020FFF777FF134A29
:1008C00000217020FFF772FF11A202216820FFF7BC
:1008D00033FF10A204217020FFF72EFF0EA2062185
:1008E0007020FFF729FF10BD4D0000206D00002093
:1008F0008D000020AD000020CD0000202D02002042
:100900004D0200206D0200208D0200200D0200200B
:1009100025524800636400006D56000010B5374A48
:1009200000210846FFF742FF354A00211020FFF75B
:100930003DFF344A00212020FFF738FF324A0021D2
:100940004020FFF733FF314A00215020FFF72EFFF0
:100950002F4A02211020FFF729FF2E4A02212020D2
:10096000FFF724FF2C4A04211020FFF71FFF294A1C
:1009700004212020FFF71AFF284A06211020FFF744
:1009800015FF274A06212020FFF710FF254A0221E4
:100990007020FFF70BFF24A204216820FFF7CCFE94
:1009A00022A206217020FFF7C7FE21A200213020DD
:1009B000FFF7C2FE1FA202213020FFF7BDFE1DA2DD
:1009C00004213020FFF7B8FE1AA206213020FFF7DD
:1009D000B3FE19A200213820FFF7AEFE16A20221B5
:1009E0003820FFF7A9FE14A204213820FFF7A4FE47
:1009F00011A206213820FFF79FFE10BDAD01002097
:100A0000CD010020ED010020AD020020CD0200202C
:100A10004D0000206D0000208D000020AD00002062
:100A2000CD0000200D020020255248006364000024
:100A300031000000200000004E00000010B5124AF6
:100A400002212020FFF7B2FE104A02213020FFF7DA
:100A5000ADFE0F4A02214020FFF7A8FE0D4A0221F9
:100A60005020FFF7A3FE0C4A06215820FFF79EFEF8
:100A70000A4A06217020FFF799FE09A20621682084
:100A8000FFF75AFE10BD0000ED0000200D01002010
:100A90002D0100204D0100206D0100208D0100205E
:100AA0003900000010B5AE2000F058F8002000F02A
:100AB00055F8102000F052F8402000F04FF8812047
:100AC00000F04CF8CF2000F049F8A12000F046F8E3
:100AD000C82000F043F8A62000F040F8A82000F05D
:100AE0003DF83F2000F03AF8D32000F037F800201E
:100AF00000F034F8D52000F031F8802000F02EF816
:100B0000D92000F02BF8F12000F028F8DA2000F0CE
:100B100025F8122000F022F8DB2000F01FF840201A
:100B200000F01CF8202000F019F8022000F016F860
:100B30008D2000F013F8142000F010F8A42000F02D
:100B40000DF8A62000F00AF8AF2000F007F8AF205B
:100B500000F004F80020FFF7BFFD10BD10B50446FB
:100B600000F0D8F9782000F0A1F900F07DF918B173
:100B700000F0EAF9012010BD002000F097F900F024
:100B800073F918B100F0E0F90220F4E7204600F014
:100B90008DF900F069F918B100F0D6F90320EAE701
:100BA00000F0D2F90020E6E710B5044600F0B2F9F3
:100BB000782000F07BF900F057F918B100F0C4F983
:100BC000012010BD402000F071F900F04DF918B17E
:100BD00000F0BAF90220F4E7204600F067F900F0CF
:100BE00043F918B100F0B0F90320EAE700F0ACF9DE
:100BF0000020E6E729B1064A12680243044B1A6056
:100C000004E0034A12688243014B1A6070470000F7
:100C10003038024029B1064A12680243044B1A6078
:100C200004E0034A12688243014B1A6070470000D7
:100C30004038024029B1064A12680243044B1A6048
:100C400004E0034A12688243014B1A6070470000B7
:100C500044380240F0B5002100220024022500267D
:100C60000223324F3F6807F00C0121B1042905D05F
:100C7000082937D105E02E4F076036E02D4F076079
:100C800033E02A4F3F1F3F68C7F38056274F3F1F6F
:100C90003F6807F03F036EB1264FB7FBF3F7DFF86D
:100CA0008CC0ACF1040CDCF800C0CCF3881C07FB52
:100CB0000CF40CE01E4FB7FBF3F7DFF870C0ACF19B
:100CC000040CDCF800C0CCF3881C07FB0CF4174FB5
:100CD0003F1F3F68C7F301477F1C7D00B4FBF5F75A
:100CE000076002E0124F076000BF00BF0F4F3F6870
:100CF00007F0F0010909104F7A5C0768D740476098
:100D00000A4F3F6807F4E051890A0B4F7A5C476845
:100D1000D7408760054F3F6807F46041490B064F95
:100D20007A5C4768D740C760F0BD000008380240D1
:100D30000024F40000127A00000000200CB500200E
:100D4000019000903448006840F4803032490860D7
:100D500000BF3148006800F4003000900198401C4A
:100D60000190009818B90198B0F5A04FF1D12A4828
:100D7000006800F4003010B10120009001E0002074
:100D800000900098012846D123484030006840F088
:100D900080502149403108602048006840F44040BC
:100DA0001E4908601C48083000681B49083108606B
:100DB0000846006840F4004008600846006840F4B7
:100DC000A05008601648091F0860081F006840F01E
:100DD0008070091F086000BF0F48006800F00070B5
:100DE0000028F9D040F205700E4908600A48083022
:100DF000006820F0030008490831086008460068D0
:100E000040F00200086000BF03480830006800F0AE
:100E10000C000828F8D10CBD0038024000700040DA
:100E200008544007003C02401CB501210220FFF796
:100E3000E1FE40210B48FFF7C7FB80210948FFF77F
:100E4000C3FBC020009001208DF804008DF806003F
:100E500000208DF807008DF8050069460148FFF76E
:100E60003DFB1CBD0004024010B5002480210E484B
:100E7000FFF7AAFB022000F003F940210A48FFF720
:100E8000A3FB022000F0FCF880210748FFF791FB4C
:100E900000B1012440210448FFF794FB012000F039
:100EA000EFF8204610BD00000004024070B5054672
:100EB000002422E040211648FFF784FB012000F0C7
:100EC000DFF8C4F1070045FA00F000F0010020B19E
:100ED00080210F48FFF778FB03E080210C48FFF7E3
:100EE00071FB012000F0CCF840210948FFF76CFBB2
:100EF000022000F0C5F8601CC4B2082CDADB4021E7
:100F00000348FFF75FFB012000F0BAF870BD000056
:100F10000004024010B540210A48FFF755FB80212C
:100F20000848FFF751FB022000F0AAF8802105488D
:100F3000FFF748FB022000F0A3F840210148FFF72B
:100F400041FB10BD0004024010B540210C48FFF7E2
:100F500039FB80210A48FFF735FB022000F090F8AA
:100F600040210748FFF730FB022000F089F880217C
:100F70000348FFF729FB022000F082F810BD0000B3
:100F800000040240042808D14FF0E021096941F033
:100F900004014FF0E022116107E04FF0E021096900
:100FA00021F004014FF0E0221161704710B515489F
:100FB000006840F47000134908601348006840F06E
:100FC00001001149086000200F49083108600E48EF
:100FD00000680E4908400C4908600D48091D08606A
:100FE000081F006820F48020091F086000200649BF
:100FF0000C310860FFF7A2FE4FF000600149803914
:10100000086010BD88ED00E000380240FFFFF6FEEA
:101010001030002410B504466FF00400FFF7B2FF53
:101020002046E11704EB5171C910014A116010BD4F
:101030004400002000214FF0E02291610F4909682F
:1010400041434FF47A7251434FF0E022516111460F
:10105000096941F00101116100BF4FF0E021096908
:10106000C1F300410029F8D04FF0E021096921F0D7
:1010700001014FF0E02211617047000044000020A0
:1010800000214FF0E02291610C4909684143516110
:101090001146096941F00101116100BF4FF0E021E3
:1010A0000969C1F300410029F8D04FF0E021096936
:1010B00021F001014FF0E02211617047440000204F
:1010C00010B50121064800F01EF8012806D10121C3
:1010D000034800F009F801200249086010BD000033
:1010E00000140040FC020020CA430282704721B174
:1010F000028842F00102028004E002884FF6FE738B
:101100001A400280704730B50246002000230024B8
:10111000158A05EA0103958905EA010413B10CB1AA
:10112000012000E0002030BD1AB183890B43838188
:1011300002E083898B43838170470000002202888C
:10114000184B98420ED0184B98420BD0B0F1804FFC
:1011500008D0164B984205D0154B984202D0154B3B
:10116000984204D14FF68F731A404B881A43124BA2
:10117000984207D0114B984204D04FF6FF431A40D3
:101180000B891A4302804B68C3620B880385054BA9
:10119000984202D0044B984201D18B7A03860123F6
:1011A00083827047000001400004014000040040B9
:1011B00000080040000C00400010004000140040F7
:1011C00010B520211E4800F0A6F8012837D12021B3
:1011D0001B4800F085F81B48007880BB184800F0D9
:1011E00037F9C1B2184802780078401C164B1870C5
:1011F0001648815418460078402803DB0020194621
:1012000008701CE010480078401E1049085C0A284D
:1012100015D10D480078801E085C0D280FD10021E3
:1012200009480078401E094A115407480078801E7A
:10123000115400200449087001200249087010BDB3
:1012400000100140F0020020F802002004030020FA
:1012500010B520211E4800F05EF8012837D120216A
:101260001B4800F03DF81B48007880BB184800F090
:10127000EFF8C1B2184802780078401C164B18707D
:101280001648815418460078402803DB0020194690
:1012900008701CE010480078401E1049085C0A28BD
:1012A00015D10D480078801E085C0D280FD1002153
:1012B00009480078401E094A115407480078801EEA
:1012C000115400200449087001200249087010BD23
:1012D00000440040000300200103002044030020DC
:1012E00010B50022002340F66A14A14200D100BFCD
:1012F0000A1201249440A3B2DC43048010BD21B142
:10130000828942F40052828104E082894DF6FF73A3
:101310001A408281704702460020B1F5007F00D15B
:1013200000BF13880B400BB1012000E00020704784
:10133000F0B50346002400260025002040F66A1779
:10134000B94200D100BF1846C1F3421401F01F0694
:10135000012707FA06F5012C01D10C3004E0022C1C
:1013600001D1103000E014301AB107682F43076034
:1013700002E00768AF430760F0BD00002DE9FF47BA
:1013800005460E460024A14600BFA046B08900B124
:1013900000BF2C8A24F44054F08804432C82AC898A
:1013A00041F20C608443B088318908437189084355
:1013B0000443AC81AC8A24F44074B0890443AC8209
:1013C0006846FFF747FC2048854202D01F48854207
:1013D00002D1DDF80C9001E0DDF80890A88900F456
:1013E000004040B109EBC90000EB09103168490029
:1013F000B0FBF1F707E009EBC90000EB0910316819
:101400008900B0FBF1F76420B7FBF0F0040120097C
:10141000642101FB1078A88900F4004040B132201B
:1014200000EBC800B0FBF1F000F00700044308E057
:10143000322000EB08106421B0FBF1F000F00F0047
:1014400004432C81BDE8FF870010014000140140D7
:1014500001468888C0F30800704700BFFEE700001F
:101460000FB4054B10B503A9044A029800F02CF8FC
:1014700010BC5DF814FB0000ED170008F40200201A
:101480000FB4084B10B504A902AA039800F01CF889
:10149000044602A9002000F0F3F8204610BC5DF8D5
:1014A00014FB00008116000802E008C8121F08C1E2
:1014B000002AFAD170477047002001E001C1121FD5
:1014C000002AFBD1704700002DE9FF4F8BB09A46F0
:1014D0000F460546002606E025280BD052460D99FA
:1014E00090476D1C761C28780028F5D10FB0304647
:1014F000BDE8F08F0024A0460122604900E00443CB
:1015000015F8013F203B02FA03F00842F7D1287892
:101510002E2817D115F8010F44F004042A280ED004
:101520006FF02F022878A0F1300109290AD808EBC2
:10153000880102EB410100EB01086D1CF2E757F84E
:10154000048B6D1C287869283ED006DC0028CDD09D
:1015500063280BD0642804D136E0732810D0752896
:101560004BD052460D999047761C85E017F8040B36
:101570008DF8000000208DF80100E946012003E00D
:1015800057F8049B4FF0FF3061074FF0000401D47F
:101590000AE0641C44450DDA8442FADB19F80410B1
:1015A0000029F6D106E0641C8442FCDB19F8041023
:1015B0000029F8D1264404E019F8010B52460D9990
:1015C0009047641EF8D257E001CF4FF00A0B002875
:1015D00002DA40422D2102E0210504D52B218DF8AD
:1015E0002410012103E0E10705D02021F7E70DF1E8
:1015F000200908910CE00021F9E701CF4FF00A0B18
:10160000F9E75946FEF7F1FD01F1300209F8012D25
:101610000028F6D1ADEB090000F1200B600701D4E2
:101620004FF00108D84502DDA8EB0B0000E00020D8
:101630008046002406E009A85246005D0D999047B7
:10164000641C761C08988442F5DB04E03020524686
:101650000D999047761CB8F10001A8F10108F5DC5E
:1016600005E019F8010B52460D999047761CBBF125
:101670000001ABF1010BF4DC6D1C34E7092801001B
:101680000A68531C0B6010707047000000B58DB0E5
:1016900001210420FFF7AEFA01210846FFF7AAFA5C
:1016A00001210802FFF7C6FA03208DF83000002060
:1016B0008DF8320001200B9000208DF833000220BD
:1016C0008DF831000BA91948FEF708FF03208DF8AB
:1016D000300000208DF8320001200B9000208DF8A2
:1016E000330002208DF831000BA91148FEF7F6FEF9
:1016F00005A8FEF790FE05A90E48FEF701FE0020A2
:101700008DF81900099008908DF81800059001A82F
:10171000FEF7E2FD4FF48030029001A8FEF7C4FD11
:1017200001210448FEF7B5FD0DB000BD00080240E0
:10173000000002400020014010B50346002404E0F0
:101740003220FFF777FC601C84B29C42F8DB10BDAE
:101750001CB501210846FFF74DFA01208DF8040061
:101760008DF806000820009000208DF80700022068
:101770008DF8050069460448FEF7B0FE08210248CE
:10178000FEF722FF1CBD0000000002401CB5012135
:101790000220FFF72FFA01208DF8040000208DF8B9
:1017A00006004FF40040009000208DF80700022052
:1017B0008DF8050069460248FEF790FE1CBD00004A
:1017C0000004024070B504460E462046FEF7F8FCC1
:1017D000C5B20021701E215403E020206055681C12
:1017E000C5B2B01EA842F8DA70BD000000BF054ABD
:1017F000128802F04002002AF9D0C2B2014B9A804E
:10180000704700000010014010B5002400F09EFD5C
:1018100000F022F808B9002010BD002405E000F017
:1018200085FD0C490855601CC4B2052CF7DB09483E
:1018300000780849497808440649897808440549E8
:10184000C978084403490979884201D10148E3E78E
:101850000020E1E74800002010B5002408E0022045
:10186000FFF70EFC601CC4B2052C01D1002010BD96
:1018700008211448FEF79DFE0128F0D0002408E05E
:101880000220FFF7FDFB601CC4B2322C01D1002006
:10189000EDE708210B48FEF78CFE0028F0D000246D
:1018A00008E00220FFF7ECFB601CC4B2322C01D12F
:1018B0000020DCE708210348FEF77BFE0128F0D07A
:1018C0000120D4E70000024010B5072301220021C7
:1018D0000848FEF73FFD0748FEF798FD00BF0221CC
:1018E0000448FEF703FD0028F9D00248FEF7FAFC91
:1018F00010BD00000020014010B5072301220A217D
:101900000848FEF727FD0748FEF780FD00BF0221CB
:101910000448FEF7EBFC0028F9D00248FEF7E2FC91
:1019200010BD00000020014005480068012804D1D6
:10193000002003490860012070474FF0FF30FBE7AB
:10194000FC0200201CB501211020FFF753F90020F4
:101950008DF804008DF806001020009001208DF80D
:10196000070002208DF8050069460248FEF7B6FD23
:101970001CBD0000001002401CB501211020FFF723
:1019800039F900208DF804008DF806002020009021
:1019900001208DF8070002208DF8050069460248F5
:1019A000FEF79CFD1CBD0000001002401CB501218B
:1019B0001020FFF71FF900208DF804008DF80600B5
:1019C0004020009001208DF8070002208DF80500CE
:1019D00069460248FEF782FD1CBD0000001002406F
:1019E0001CB501210420FFF705F900208DF8040043
:1019F0008DF806004FF40050009001208DF807008C
:101A000002208DF8050069460148FEF767FD1CBD00
:101A10000008024010B5FFF795FFFFF7ADFFFFF795
:101A2000C5FFFFF7DDFF10BDA820FFF7F3FAFFF7B2
:101A3000FBF9FFF737F8FFF7EDFFFFF789FEFFF738
:101A400025FE00F0C3FCFEF7C7FDFEF7E5FDFFF73E
:101A50009DFE41F2873142F2CF0000F089FCA5E300
:101A60001021FE48FEF7A5FD0028F8D11420FFF74D
:101A7000E1FA00BF1021F948FEF79BFD0028F9D0DC
:101A80001420FFF7D7FA4FF48071F448FEF79AFD5F
:101A9000FEF7D4FF1420FFF74FFE00F00BFCFEF71B
:101AA000DBFE81E31021ED48FEF783FD68BB1420C7
:101AB000FFF7C0FA00BF1021E848FEF77AFD0028C2
:101AC000F9D01420FFF7B6FA0020E5490870E5497F
:101AD000087000F0EFFB4FF48071E048FEF774FDF2
:101AE0004FF40071DD48FEF76FFD4FF48061DB4875
:101AF000FEF76AFD4FF40041DB48FEF763FD4FF44B
:101B00008061D948FEF75EFD4FE3D5480078002894
:101B10007ED1FFF709FF0128FAD1FFF775FED349FF
:101B20000860FFF7D1FED2490880FFF7E5FED149F2
:101B30000880CF480088D0490988884205DD4FF4E5
:101B40008061C648FEF73EFD04E04FF48061C34863
:101B5000FEF73AFDC54800680078C8490978884210
:101B60000FDB4FF40071BD48FEF72CFD3220FFF76C
:101B700061FA4FF40071B948FEF726FD6420FFF7C3
:101B800059FABA4800688078BD490978884215DB5F
:101B90004FF40041B448FEF717FD4FF48061B2489E
:101BA000FEF712FD3220FFF745FA4FF48061AE4890
:101BB000FEF708FD6420FFF73DFA04E04FF4004112
:101BC000A948FEF7FFFCA94800688178ADA0FFF79F
:101BD00047FCA64800680178ADA0FFF741FCA44887
:101BE0000188AEA0FFF73CFCA2480188ADA0FFF73A
:101BF00037FC9E4800680278ACA1AD48FFF740FC76
:101C00009A4800688278A9A1AA48FFF739FC00E049
:101C100021E097480288A5A1A748FFF731FC954825
:101C20000288A2A1A548FFF72BFC0421A048FFF7DA
:101C3000C9FD03219F48FFF7C5FD05219E48FFF719
:101C4000C1FD05219D48FFF7BDFD9C4B9A4A98496F
:101C50009848FEF7E4FD82480078012875D198483D
:101C60000078012846D197A19948FEF7B0FA20B92B
:101C70004FF480617C48FEF7A7FC96A19448FEF7DC
:101C8000A6FA20B94FF480617748FEF79BFC94A137
:101C90008F48FEF79CFA95A18D48FEF798FA96A119
:101CA0008B48FEF794FA20B94FF400716B48FEF7A9
:101CB00089FC94A18648FEF78AFA20B94FF4007196
:101CC0006648FEF781FC92A18148FEF780FA20B9B0
:101CD0004FF480616148FEF775FC90A17C48FEF7E7
:101CE00076FA20B94FF480615C48FEF76DFC002065
:101CF000734908708C480078012869D159480078E8
:101D000020B38A480078012806D002280AD0032888
:101D10000ED0042818D111E085A200213820FEF74A
:101D20000BFD11E082A202213820FEF705FD0BE039
:101D30007FA204213820FEF7FFFC05E07CA20621EB
:101D40003820FEF7F9FC00BF3AE0D4E1774800788C
:101D5000012806D0022820D0032824D004282ED120
:101D600027E000203E4908704FF400713B48FEF721
:101D70002BFC4FF480613948FEF726FC4FF40041FC
:101D80003948FEF71FFC4FF480613748FEF71AFC14
:101D900000F090FAFEF760FD11E066A20221382003
:101DA000FEF7CAFC0BE063A204213820FEF7C4FC56
:101DB00005E060A206213820FEF7BEFC00BF00BF90
:101DC00028480078C0432749087000205649087009
:101DD00059480078012833D12248007868BB53481D
:101DE0000078012806D0022805D003280ED0042848
:101DF00022D116E020E051A202213020FEF79CFC07
:101E00004FA200213020FEF797FC15E04BA20421E1
:101E10003020FEF791FC4AA202213020FEF78CFC14
:101E20000AE046A206213020FEF786FC44A20421E7
:101E30003020FEF781FC00BF00BF00203E49087043
:101E400040480078012808D10648007820B9374872
:101E50000078012878D078E0A7E0A9E000100240DF
:101E60003500002036000020000402401000002051
:101E700014000020160000203A0000203900002045
:101E80003800002074656D3A25640D0A00000000DA
:101E9000686E6D3A25640D0A00000000676D3A25F2
:101EA000640D0A0070633A25640D0A002564000081
:101EB000180000201C0000201F000020240000202B
:101EC000F00200206265655F6F70656E00000000C3
:101ED000040300206265655F636C6F73650000003A
:101EE00066616E5F6F70656E0000000066616E5F18
:101EF000636C6F73650000006C6564325F6F7065C2
:101F00006E0000006C6564325F636C6F7365000087
:101F10006C6564335F6F70656E0000006C656433E0
:101F20005F636C6F736500003E0000203700002087
:101F30004E000000590000003C000020310000006D
:101F4000200000003D00002006E0022811D00328F8
:101F50001CD0042828D126E0AFF220020021302036
:101F6000FEF7EAFBAFF2280202213020FEF7E4FB85
:101F70001AE0AFF2380202213020FEF7DDFBAFF2AB
:101F8000400204213020FEF7D7FB0DE0AFF25402EF
:101F900004213020FEF7D0FBAFF25C020621302096
:101FA000FEF7CAFB00E000BF00BF002080490870B8
:101FB00080480278AFF20C117F48FFF761FA7F4842
:101FC0000278AFF218117E48FFF75AFA7D4802886E
:101FD000AFF228117C48FFF753FA04217648FFF747
:101FE000F1FB03217648FFF7EDFB05217648FFF76B
:101FF000E9FB754A70497248FEF7FDFB20217348E2
:10200000FEF7D7FA98BB1420FFF714F800BF202181
:102010006E48FEF7CEFA0028F9D01420FFF70AF830
:102020006B480078042807DA6A48007820B96848C5
:102030000078401C6649087066480078F8B164482A
:102040000078012806D0022805D0032809D00428EA
:1020500014D10DE012E059480078401E574908702D
:102060000CE054480078401E5249087006E009E030
:102070005448008864385349088000BF00BF0120DD
:102080005549087040215148FEF793FA98BB142037
:10209000FEF7D0FF00BF40214C48FEF78AFA002827
:1020A000F9D01420FEF7C6FF49480078012807DD63
:1020B0004848007820B946480078401E44490870D6
:1020C00044480078F8B142480078012806D0022838
:1020D00005D0032809D0042814D10DE012E03748B8
:1020E0000078401C354908700CE032480078401CEC
:1020F0003049087006E009E0324800886430314910
:10210000088000BF00BF0120294908704FF400512A
:102110003248FEF74EFA002846D11420FEF78AFF17
:1021200000BF4FF400512D48FEF743FA0028F8D0C5
:102130001420FEF77FFF2A480078012801D12949A1
:1021400008702748007800282ED101202449087003
:102150001F49087000201F4908704FF400711B4888
:10216000FEF732FA4FF480611848FEF72DFA4FF46B
:1021700000411D48FEF726FA4FF480611A48FEF729
:1021800021FA1AA0FFF76CF928A0FFF769F930A02F
:10219000FFF766F937A0FFF763F93EA0FFF760F994
:1021A00000F088F8FEF7BAFB7CE400BF58E40000BA
:1021B0003D000020390000202900002038000020C8
:1021C0002D0000203A0000203000002000100240C6
:1021D00037000020360000203C00002000080240AC
:1021E000350000203E000020000402400D0A596F17
:1021F000752063616E207573652074686520666F55
:102200006C6C6F77696E6720636F6D6D616E647360
:1022100020746F20636F6E74726F6C207468652019
:1022200073797374656D0D0A00000000313A202245
:102230006C6564325F6F70656E2220414E442022CF
:102240006C6564325F636C6F7365220D0A00000079
:10225000323A20226C6564335F6F70656E222041D4
:102260004E4420226C6564335F636C6F7365220D8E
:102270000A000000333A20226265655F6F70656E68
:102280002220414E4420226265655F636C6F736556
:10229000220D0A00343A202266616E5F6F70656E0F
:1022A0002220414E44202266616E5F636C6F73652D
:1022B000220D0A0070B5002415E004F1B001C8B287
:1022C000FEF74CFC0020FEF749FC1020FEF746FC10
:1022D000002504E00020FEF767FC681CC5B2802DD5
:1022E000F8DB601CC4B2082CE7DB70BD10B500241D
:1022F00000BF08210C48FEF75CF90028F9D028201F
:10230000FEF7BEFE08210848FEF753F9012801D167
:10231000012400E0002400BF08210348FEF749F92A
:102320000128F9D0204610BD0000024070B50024FD
:10233000002506E06006040EFFF7D8FF0443681C82
:10234000C5B2082DF6DB204670BD000010B508218F
:102350000648FEF737F91420FEF76CFE0821034803
:10236000FEF732F91E20FEF78BFE10BD0000024082
:102370007FB504460D4601212020FEF74BFC0020CE
:10238000ADF80800ADF802000195A0B2ADF800006C
:10239000012211460C48FEF7C7FE69460A48FEF7BF
:1023A000CDFE37208DF80C0001208DF80F008DF840
:1023B0000D008DF80E0003A8FEF752F90121024826
:1023C000FEF795FE7FBD00000014004000B587B009
:1023D00001210846FEF70EFC01211020FEF72AFC21
:1023E00002208DF8180000208DF81A004FF4C0600C
:1023F000059000208DF81B0002208DF8190005A91A
:102400001C48FEF76BF84FF4E13001900020ADF866
:1024100010000C20ADF80E000020ADF80C00ADF857
:102420000A00ADF8080001A91348FEF7A7FF252010
:102430008DF8000001208DF803008DF801008DF863
:102440000200072209210B48FEF790F807220A2113
:102450000848FEF78BF8012240F225510648FEF7A6
:1024600067FF6846FEF7FCF801210348FEF747FFC7
:1024700007B000BD00000240001001400000000055
:10248000000000000000000000000000000000F854
:1024900000000000000000333000000000100C06B7
:1024A000100C0600000000000000000040C0784052
:1024B000C0784000043F04043F040400007088FC1E
:1024C00008300000001820FF211E0000F008F00076
:1024D000E018000000211C031E211E0000F00888E7
:1024E000700000001E2123241927211010160E0051
:1024F000000000000000000000000000000000E0FC
:102500001804020000000007182040000002041810
:10251000E00000000040201807000000404080F06C
:10252000804040000202010F01020200000000F0A2
:10253000000000000101011F010101000000000076
:102540000000000080B070000000000000000000EB
:102550000000000000010101010101010000000074
:10256000000000000030300000000000000000000B
:1025700080601804006018060100000000E01008E8
:102580000810E000000F102020100F00001010F8BD
:10259000000000000020203F2020000000700808FC
:1025A000088870000030282422213000003008887C
:1025B000884830000018202020110E000000C020A4
:1025C00010F8000000070424243F240000F80888C5
:1025D000880808000019212020110E0000E0108852
:1025E00088180000000F112020110E000038080884
:1025F000C83808000000003F000000000070880894
:1026000008887000001C222121221C0000E0100814
:102610000810E0000000312222110F00000000C06D
:10262000C00000000000003030000000000000800A
:1026300000000000000080600000000000008040FA
:102640002010080000010204081020004040404013
:102650004040400004040404040404000008102066
:1026600040800000002010080402010000704808AB
:102670000808F0000000003036010000C030C82813
:10268000E810E0000718272423140B000000C038CE
:10269000E0000000203C23020227382008F8888848
:1026A00088700000203F202020110E00C030080854
:1026B00008083800071820202010080008F808082B
:1026C0000810E000203F202020100F0008F8888824
:1026D000E8081000203F20202320180008F88888F0
:1026E000E8081000203F200003000000C030080868
:1026F0000838000007182020221E020008F80800F1
:102700000008F808203F210101213F20000808F8B7
:10271000080800000020203F2020000000000808DA
:10272000F8080800C08080807F00000008F888C09A
:1027300028180800203F20012638200008F808004B
:1027400000000000203F20202020300008F8F80082
:10275000F8F80800203F003F003F200008F830C094
:102760000008F808203F200007183F00E010080884
:102770000810E0000F10202020100F0008F80808B3
:102780000808F000203F210101010000E0100808C6
:102790000810E0000F18242438504F0008F88888EB
:1027A00088887000203F2000030C302000708808CB
:1027B000080838000038202121221C00180808F8D9
:1027C000080818000000203F2000000008F808005A
:1027D0000008F808001F202020201F00087888002B
:1027E00000C83808000007380E010000F80800F89B
:1027F0000008F800033C0700073C03000818688045
:102800008068180820302C03032C30200838C800BA
:10281000C83808000000203F200000001008080809
:10282000C83808002038262120201800000000FEAB
:10283000020202000000007F40404000000C30C057
:1028400000000000000000010638C0000002020283
:10285000FE000000004040407F0000000000040235
:102860000202040000000000000000000000000060
:102870000000000080808080808080800002020450
:102880000000000000000000000000000000808048
:10289000808000000019242222223F2008F80080B6
:1028A00080000000003F112020110E000000008079
:1028B00080800000000E1120202011000000008008
:1028C0008088F800000E112020103F20000080803A
:1028D00080800000001F222222221300008080F04E
:1028E000888888180020203F202000000000808079
:1028F00080808000006B94949493600008F80080BE
:1029000080800000203F210000203F200080989818
:10291000000000000020203F202000000000008078
:102920009898000000C08080807F000008F80000B8
:1029300080808000203F24022D302000000808F80D
:10294000000000000020203F2020000080808080C8
:1029500080808000203F20003F20003F808000805A
:1029600080800000203F210000203F200000808068
:1029700080800000001F202020201F008080008019
:102980008000000080FFA12020110E0000000080C8
:1029900080808000000E112020A0FF8080808000B9
:1029A0008080800020203F212000010000008080E6
:1029B000808080000033242424241900008080E0DB
:1029C000808000000000001F2020000080800000A8
:1029D00000808000001F202020103F208080800089
:1029E0000080808000010E30080601008080008099
:1029F000008080800F300C030C300F0000808000BE
:102A0000808080000020312E0E31200080808000E8
:102A10000080808080818E70180601000080808098
:102A2000808080000021302C222130000000000036
:102A3000807C020200000000003F404000000000D7
:102A4000FF00000000000000FF0000000002027C08
:102A5000800000000040403F00000000000601012F
:102A60000202040400000000000000008C2A00089C
:102A700000000020040300003C020008C42C0008F1
:102A80000403002084040000B8140008412D010252
:102A90000304040528060708090511234B740E25B5
:102AA0001060028C2BFE920132FE180A04047E0193
:102AB000407E42427E0234427E402809FC24242487
:102AC000FC252624081204481040308F80844C5581
:102AD000252525554C80808040493F7940100C4485
:102AE00048507F40407F504844401010404042448E
:102AF00058C0407F40C0504846404037808040200A
:102B000018071B3F40011A787B15424242FE2008FD
:102B100042A29E82A2C2BE27806F080828CF4B2FF8
:102B2000C8081009109453321E325210198F5342A4
:102B30007E4BFF490142FF180B222AAAFFAAAAA234
:102B400080A2AA08132A2210108060080A6A8A8AC2
:102B50009AAA8A8ACA0F20C018092018080808C82B
:102B600038CF061C08A8185017080402FF40201E82
:102B700003040A11209019C11280294A190423C0A4
:102B80003019951A43AE19BF1B42410611180A08A5
:102B9000049392969A92FA94071CFA020220200D4E
:102BA000472424140CFF04042444241C1D2030ACAE
:102BB00063371BFE22012AFE902D672212123E1956
:102BC0000119471117101010FF10902008FE828283
:102BD0008292A29E1E0444827F016E100880432CC4
:102BE000102C4380101012EAAFAAEA0FFA02888C68
:102BF0005724548C841F0202EAAAAAAB0219011AB4
:102C0000EA7019D1200CF80704E4A4A4BFA4A4E43A
:102C100004293C195F2A4A0129602809060909E6A6
:102C2000F80C04020153041E1C071F30DA1901338B
:102C3000201018080202F2121212F21F1AFE0441AA
:102C4000160F0404040F4440807F10100444241421
:102C5000047C0506047C0414244404301080808124
:102C60004143252911292543418080801BF8880193
:102C70002AFF0552F81B1F08012A7F10349F80F09D
:102C80001BFE02DC2B82FA051B8202AF3A1F7C1965
:102C90009C1B4458A01D404042CCB32F4949C94910
:102CA000497F4F300F40201F20405F484440414241
:102CB0004558402A7C2F19D4444040FC390F293F05
:042CC0006911011580
:040000050800018965
:00000001FF
